
RF_MASTER.elf:     file format elf32-avr

Sections:
Idx Name          Size      VMA       LMA       File off  Algn
  0 .data         00000024  00800100  000003d2  00000446  2**0
                  CONTENTS, ALLOC, LOAD, DATA
  1 .text         000003d2  00000000  00000000  00000074  2**1
                  CONTENTS, ALLOC, LOAD, READONLY, CODE
  2 .comment      00000011  00000000  00000000  0000046a  2**0
                  CONTENTS, READONLY
  3 .note.gnu.avr.deviceinfo 0000003c  00000000  00000000  0000047c  2**2
                  CONTENTS, READONLY

Disassembly of section .text:

00000000 <__vectors>:
   0:	0c 94 46 00 	jmp	0x8c	; 0x8c <__ctors_end>
   4:	0c 94 5d 00 	jmp	0xba	; 0xba <__bad_interrupt>
   8:	0c 94 5d 00 	jmp	0xba	; 0xba <__bad_interrupt>
   c:	0c 94 5d 00 	jmp	0xba	; 0xba <__bad_interrupt>
  10:	0c 94 5d 00 	jmp	0xba	; 0xba <__bad_interrupt>
  14:	0c 94 5d 00 	jmp	0xba	; 0xba <__bad_interrupt>
  18:	0c 94 5d 00 	jmp	0xba	; 0xba <__bad_interrupt>
  1c:	0c 94 5d 00 	jmp	0xba	; 0xba <__bad_interrupt>
  20:	0c 94 5d 00 	jmp	0xba	; 0xba <__bad_interrupt>
  24:	0c 94 5d 00 	jmp	0xba	; 0xba <__bad_interrupt>
  28:	0c 94 5d 00 	jmp	0xba	; 0xba <__bad_interrupt>
  2c:	0c 94 5d 00 	jmp	0xba	; 0xba <__bad_interrupt>
  30:	0c 94 5d 00 	jmp	0xba	; 0xba <__bad_interrupt>
  34:	0c 94 5d 00 	jmp	0xba	; 0xba <__bad_interrupt>
  38:	0c 94 5d 00 	jmp	0xba	; 0xba <__bad_interrupt>
  3c:	0c 94 5d 00 	jmp	0xba	; 0xba <__bad_interrupt>
  40:	0c 94 5d 00 	jmp	0xba	; 0xba <__bad_interrupt>
  44:	0c 94 5d 00 	jmp	0xba	; 0xba <__bad_interrupt>
  48:	0c 94 5d 00 	jmp	0xba	; 0xba <__bad_interrupt>
  4c:	0c 94 5d 00 	jmp	0xba	; 0xba <__bad_interrupt>
  50:	0c 94 5d 00 	jmp	0xba	; 0xba <__bad_interrupt>
  54:	0c 94 5d 00 	jmp	0xba	; 0xba <__bad_interrupt>
  58:	0c 94 5d 00 	jmp	0xba	; 0xba <__bad_interrupt>
  5c:	0c 94 5d 00 	jmp	0xba	; 0xba <__bad_interrupt>
  60:	0c 94 5d 00 	jmp	0xba	; 0xba <__bad_interrupt>
  64:	0c 94 5d 00 	jmp	0xba	; 0xba <__bad_interrupt>
  68:	0c 94 5d 00 	jmp	0xba	; 0xba <__bad_interrupt>
  6c:	0c 94 5d 00 	jmp	0xba	; 0xba <__bad_interrupt>
  70:	0c 94 5d 00 	jmp	0xba	; 0xba <__bad_interrupt>
  74:	0c 94 5d 00 	jmp	0xba	; 0xba <__bad_interrupt>
  78:	0c 94 5d 00 	jmp	0xba	; 0xba <__bad_interrupt>
  7c:	0c 94 5d 00 	jmp	0xba	; 0xba <__bad_interrupt>
  80:	0c 94 5d 00 	jmp	0xba	; 0xba <__bad_interrupt>
  84:	0c 94 5d 00 	jmp	0xba	; 0xba <__bad_interrupt>
  88:	0c 94 5d 00 	jmp	0xba	; 0xba <__bad_interrupt>

0000008c <__ctors_end>:
  8c:	11 24       	eor	r1, r1
  8e:	1f be       	out	0x3f, r1	; 63
  90:	cf ef       	ldi	r28, 0xFF	; 255
  92:	d0 e1       	ldi	r29, 0x10	; 16
  94:	de bf       	out	0x3e, r29	; 62
  96:	cd bf       	out	0x3d, r28	; 61

00000098 <__do_copy_data>:
  98:	11 e0       	ldi	r17, 0x01	; 1
  9a:	a0 e0       	ldi	r26, 0x00	; 0
  9c:	b1 e0       	ldi	r27, 0x01	; 1
  9e:	e2 ed       	ldi	r30, 0xD2	; 210
  a0:	f3 e0       	ldi	r31, 0x03	; 3
  a2:	00 e0       	ldi	r16, 0x00	; 0
  a4:	0b bf       	out	0x3b, r16	; 59
  a6:	02 c0       	rjmp	.+4      	; 0xac <__do_copy_data+0x14>
  a8:	07 90       	elpm	r0, Z+
  aa:	0d 92       	st	X+, r0
  ac:	a4 32       	cpi	r26, 0x24	; 36
  ae:	b1 07       	cpc	r27, r17
  b0:	d9 f7       	brne	.-10     	; 0xa8 <__do_copy_data+0x10>
  b2:	0e 94 92 01 	call	0x324	; 0x324 <main>
  b6:	0c 94 e7 01 	jmp	0x3ce	; 0x3ce <_exit>

000000ba <__bad_interrupt>:
  ba:	0c 94 00 00 	jmp	0	; 0x0 <__vectors>

000000be <RadioPortsConfig>:
  be:	0e 94 26 01 	call	0x24c	; 0x24c <SPIInit>
  c2:	b8 9a       	sbi	0x17, 0	; 23
  c4:	c0 9a       	sbi	0x18, 0	; 24
  c6:	08 95       	ret

000000c8 <RadioSendCmd>:
  c8:	ff 92       	push	r15
  ca:	0f 93       	push	r16
  cc:	1f 93       	push	r17
  ce:	cf 93       	push	r28
  d0:	df 93       	push	r29
  d2:	cd b7       	in	r28, 0x3d	; 61
  d4:	de b7       	in	r29, 0x3e	; 62
  d6:	a1 97       	sbiw	r28, 0x21	; 33
  d8:	0f b6       	in	r0, 0x3f	; 63
  da:	f8 94       	cli
  dc:	de bf       	out	0x3e, r29	; 62
  de:	0f be       	out	0x3f, r0	; 63
  e0:	cd bf       	out	0x3d, r28	; 61
  e2:	8a 01       	movw	r16, r20
  e4:	f2 2e       	mov	r15, r18
  e6:	89 83       	std	Y+1, r24	; 0x01
  e8:	61 15       	cp	r22, r1
  ea:	71 05       	cpc	r23, r1
  ec:	69 f4       	brne	.+26     	; 0x108 <RadioSendCmd+0x40>
  ee:	26 e0       	ldi	r18, 0x06	; 6
  f0:	41 e0       	ldi	r20, 0x01	; 1
  f2:	4f 0d       	add	r20, r15
  f4:	be 01       	movw	r22, r28
  f6:	6f 5f       	subi	r22, 0xFF	; 255
  f8:	7f 4f       	sbci	r23, 0xFF	; 255
  fa:	cb 01       	movw	r24, r22
  fc:	0e 94 30 01 	call	0x260	; 0x260 <SPISend>
 100:	01 15       	cp	r16, r1
 102:	11 05       	cpc	r17, r1
 104:	c9 f4       	brne	.+50     	; 0x138 <RadioSendCmd+0x70>
 106:	0b c0       	rjmp	.+22     	; 0x11e <RadioSendCmd+0x56>
 108:	96 2f       	mov	r25, r22
 10a:	de 01       	movw	r26, r28
 10c:	12 96       	adiw	r26, 0x02	; 2
 10e:	fb 01       	movw	r30, r22
 110:	8e 2f       	mov	r24, r30
 112:	89 1b       	sub	r24, r25
 114:	8f 15       	cp	r24, r15
 116:	58 f7       	brcc	.-42     	; 0xee <RadioSendCmd+0x26>
 118:	81 91       	ld	r24, Z+
 11a:	8d 93       	st	X+, r24
 11c:	f9 cf       	rjmp	.-14     	; 0x110 <RadioSendCmd+0x48>
 11e:	89 81       	ldd	r24, Y+1	; 0x01
 120:	a1 96       	adiw	r28, 0x21	; 33
 122:	0f b6       	in	r0, 0x3f	; 63
 124:	f8 94       	cli
 126:	de bf       	out	0x3e, r29	; 62
 128:	0f be       	out	0x3f, r0	; 63
 12a:	cd bf       	out	0x3d, r28	; 61
 12c:	df 91       	pop	r29
 12e:	cf 91       	pop	r28
 130:	1f 91       	pop	r17
 132:	0f 91       	pop	r16
 134:	ff 90       	pop	r15
 136:	08 95       	ret
 138:	de 01       	movw	r26, r28
 13a:	12 96       	adiw	r26, 0x02	; 2
 13c:	90 2f       	mov	r25, r16
 13e:	f8 01       	movw	r30, r16
 140:	8e 2f       	mov	r24, r30
 142:	89 1b       	sub	r24, r25
 144:	8f 15       	cp	r24, r15
 146:	58 f7       	brcc	.-42     	; 0x11e <RadioSendCmd+0x56>
 148:	8d 91       	ld	r24, X+
 14a:	81 93       	st	Z+, r24
 14c:	f9 cf       	rjmp	.-14     	; 0x140 <RadioSendCmd+0x78>

0000014e <RadioGetStatus>:
 14e:	cf 93       	push	r28
 150:	df 93       	push	r29
 152:	1f 92       	push	r1
 154:	cd b7       	in	r28, 0x3d	; 61
 156:	de b7       	in	r29, 0x3e	; 62
 158:	8f ef       	ldi	r24, 0xFF	; 255
 15a:	89 83       	std	Y+1, r24	; 0x01
 15c:	26 e0       	ldi	r18, 0x06	; 6
 15e:	41 e0       	ldi	r20, 0x01	; 1
 160:	be 01       	movw	r22, r28
 162:	6f 5f       	subi	r22, 0xFF	; 255
 164:	7f 4f       	sbci	r23, 0xFF	; 255
 166:	cb 01       	movw	r24, r22
 168:	0e 94 30 01 	call	0x260	; 0x260 <SPISend>
 16c:	89 81       	ldd	r24, Y+1	; 0x01
 16e:	0f 90       	pop	r0
 170:	df 91       	pop	r29
 172:	cf 91       	pop	r28
 174:	08 95       	ret

00000176 <RadioSetRegVal>:
 176:	cf 93       	push	r28
 178:	df 93       	push	r29
 17a:	1f 92       	push	r1
 17c:	cd b7       	in	r28, 0x3d	; 61
 17e:	de b7       	in	r29, 0x3e	; 62
 180:	69 83       	std	Y+1, r22	; 0x01
 182:	21 e0       	ldi	r18, 0x01	; 1
 184:	40 e0       	ldi	r20, 0x00	; 0
 186:	50 e0       	ldi	r21, 0x00	; 0
 188:	be 01       	movw	r22, r28
 18a:	6f 5f       	subi	r22, 0xFF	; 255
 18c:	7f 4f       	sbci	r23, 0xFF	; 255
 18e:	80 5e       	subi	r24, 0xE0	; 224
 190:	0e 94 64 00 	call	0xc8	; 0xc8 <RadioSendCmd>
 194:	0f 90       	pop	r0
 196:	df 91       	pop	r29
 198:	cf 91       	pop	r28
 19a:	08 95       	ret

0000019c <RadioConfig>:
 19c:	0f 93       	push	r16
 19e:	1f 93       	push	r17
 1a0:	cf 93       	push	r28
 1a2:	df 93       	push	r29
 1a4:	1f 92       	push	r1
 1a6:	cd b7       	in	r28, 0x3d	; 61
 1a8:	de b7       	in	r29, 0x3e	; 62
 1aa:	89 83       	std	Y+1, r24	; 0x01
 1ac:	0e 94 5f 00 	call	0xbe	; 0xbe <RadioPortsConfig>
 1b0:	89 81       	ldd	r24, Y+1	; 0x01
 1b2:	00 e0       	ldi	r16, 0x00	; 0
 1b4:	10 e0       	ldi	r17, 0x00	; 0
 1b6:	81 30       	cpi	r24, 0x01	; 1
 1b8:	69 f4       	brne	.+26     	; 0x1d4 <RadioConfig+0x38>
 1ba:	f8 01       	movw	r30, r16
 1bc:	e1 5f       	subi	r30, 0xF1	; 241
 1be:	fe 4f       	sbci	r31, 0xFE	; 254
 1c0:	61 81       	ldd	r22, Z+1	; 0x01
 1c2:	80 81       	ld	r24, Z
 1c4:	0e 94 bb 00 	call	0x176	; 0x176 <RadioSetRegVal>
 1c8:	0e 5f       	subi	r16, 0xFE	; 254
 1ca:	1f 4f       	sbci	r17, 0xFF	; 255
 1cc:	0a 30       	cpi	r16, 0x0A	; 10
 1ce:	11 05       	cpc	r17, r1
 1d0:	a1 f7       	brne	.-24     	; 0x1ba <RadioConfig+0x1e>
 1d2:	0c c0       	rjmp	.+24     	; 0x1ec <RadioConfig+0x50>
 1d4:	f8 01       	movw	r30, r16
 1d6:	e7 5e       	subi	r30, 0xE7	; 231
 1d8:	fe 4f       	sbci	r31, 0xFE	; 254
 1da:	61 81       	ldd	r22, Z+1	; 0x01
 1dc:	80 81       	ld	r24, Z
 1de:	0e 94 bb 00 	call	0x176	; 0x176 <RadioSetRegVal>
 1e2:	0e 5f       	subi	r16, 0xFE	; 254
 1e4:	1f 4f       	sbci	r17, 0xFF	; 255
 1e6:	0a 30       	cpi	r16, 0x0A	; 10
 1e8:	11 05       	cpc	r17, r1
 1ea:	a1 f7       	brne	.-24     	; 0x1d4 <RadioConfig+0x38>
 1ec:	0f 90       	pop	r0
 1ee:	df 91       	pop	r29
 1f0:	cf 91       	pop	r28
 1f2:	1f 91       	pop	r17
 1f4:	0f 91       	pop	r16
 1f6:	08 95       	ret

000001f8 <RadioGetRegVal>:
 1f8:	cf 93       	push	r28
 1fa:	df 93       	push	r29
 1fc:	1f 92       	push	r1
 1fe:	cd b7       	in	r28, 0x3d	; 61
 200:	de b7       	in	r29, 0x3e	; 62
 202:	21 e0       	ldi	r18, 0x01	; 1
 204:	ae 01       	movw	r20, r28
 206:	4f 5f       	subi	r20, 0xFF	; 255
 208:	5f 4f       	sbci	r21, 0xFF	; 255
 20a:	60 e0       	ldi	r22, 0x00	; 0
 20c:	70 e0       	ldi	r23, 0x00	; 0
 20e:	0e 94 64 00 	call	0xc8	; 0xc8 <RadioSendCmd>
 212:	89 81       	ldd	r24, Y+1	; 0x01
 214:	0f 90       	pop	r0
 216:	df 91       	pop	r29
 218:	cf 91       	pop	r28
 21a:	08 95       	ret

0000021c <RadioWriteData>:
 21c:	2e e0       	ldi	r18, 0x0E	; 14
 21e:	40 e0       	ldi	r20, 0x00	; 0
 220:	50 e0       	ldi	r21, 0x00	; 0
 222:	bc 01       	movw	r22, r24
 224:	80 ea       	ldi	r24, 0xA0	; 160
 226:	0c 94 64 00 	jmp	0xc8	; 0xc8 <RadioSendCmd>

0000022a <RadioReadData>:
 22a:	2e e0       	ldi	r18, 0x0E	; 14
 22c:	ac 01       	movw	r20, r24
 22e:	60 e0       	ldi	r22, 0x00	; 0
 230:	70 e0       	ldi	r23, 0x00	; 0
 232:	81 e6       	ldi	r24, 0x61	; 97
 234:	0c 94 64 00 	jmp	0xc8	; 0xc8 <RadioSendCmd>

00000238 <RadioDataSent>:
 238:	0e 94 a7 00 	call	0x14e	; 0x14e <RadioGetStatus>
 23c:	80 72       	andi	r24, 0x20	; 32
 23e:	90 e0       	ldi	r25, 0x00	; 0
 240:	08 95       	ret

00000242 <RadioDataReceived>:
 242:	0e 94 a7 00 	call	0x14e	; 0x14e <RadioGetStatus>
 246:	80 74       	andi	r24, 0x40	; 64
 248:	90 e0       	ldi	r25, 0x00	; 0
 24a:	08 95       	ret

0000024c <SPIInit>:
 24c:	87 b3       	in	r24, 0x17	; 23
 24e:	87 67       	ori	r24, 0x77	; 119
 250:	87 bb       	out	0x17, r24	; 23
 252:	88 b3       	in	r24, 0x18	; 24
 254:	81 67       	ori	r24, 0x71	; 113
 256:	88 bb       	out	0x18, r24	; 24
 258:	8d b1       	in	r24, 0x0d	; 13
 25a:	82 65       	ori	r24, 0x52	; 82
 25c:	8d b9       	out	0x0d, r24	; 13
 25e:	08 95       	ret

00000260 <SPISend>:
 260:	cf 93       	push	r28
 262:	df 93       	push	r29
 264:	58 b3       	in	r21, 0x18	; 24
 266:	e1 e0       	ldi	r30, 0x01	; 1
 268:	f0 e0       	ldi	r31, 0x00	; 0
 26a:	df 01       	movw	r26, r30
 26c:	02 c0       	rjmp	.+4      	; 0x272 <SPISend+0x12>
 26e:	aa 0f       	add	r26, r26
 270:	bb 1f       	adc	r27, r27
 272:	2a 95       	dec	r18
 274:	e2 f7       	brpl	.-8      	; 0x26e <SPISend+0xe>
 276:	9d 01       	movw	r18, r26
 278:	ea 2f       	mov	r30, r26
 27a:	e0 95       	com	r30
 27c:	5e 23       	and	r21, r30
 27e:	58 bb       	out	0x18, r21	; 24
 280:	a6 2f       	mov	r26, r22
 282:	fb 01       	movw	r30, r22
 284:	5e 2f       	mov	r21, r30
 286:	5a 1b       	sub	r21, r26
 288:	54 17       	cp	r21, r20
 28a:	48 f4       	brcc	.+18     	; 0x29e <SPISend+0x3e>
 28c:	ec 01       	movw	r28, r24
 28e:	59 91       	ld	r21, Y+
 290:	ce 01       	movw	r24, r28
 292:	5f b9       	out	0x0f, r21	; 15
 294:	77 9b       	sbis	0x0e, 7	; 14
 296:	fe cf       	rjmp	.-4      	; 0x294 <SPISend+0x34>
 298:	5f b1       	in	r21, 0x0f	; 15
 29a:	51 93       	st	Z+, r21
 29c:	f3 cf       	rjmp	.-26     	; 0x284 <SPISend+0x24>
 29e:	88 b3       	in	r24, 0x18	; 24
 2a0:	28 2b       	or	r18, r24
 2a2:	28 bb       	out	0x18, r18	; 24
 2a4:	df 91       	pop	r29
 2a6:	cf 91       	pop	r28
 2a8:	08 95       	ret

000002aa <TIM1Init>:
 2aa:	8e b5       	in	r24, 0x2e	; 46
 2ac:	84 60       	ori	r24, 0x04	; 4
 2ae:	8e bd       	out	0x2e, r24	; 46
 2b0:	08 95       	ret

000002b2 <TIM1SetVal>:
 2b2:	bb 27       	eor	r27, r27
 2b4:	a9 2f       	mov	r26, r25
 2b6:	98 2f       	mov	r25, r24
 2b8:	87 2f       	mov	r24, r23
 2ba:	29 2f       	mov	r18, r25
 2bc:	33 27       	eor	r19, r19
 2be:	2d bd       	out	0x2d, r18	; 45
 2c0:	8c bd       	out	0x2c, r24	; 44
 2c2:	08 95       	ret

000002c4 <TIM1GetVal>:
 2c4:	6c b5       	in	r22, 0x2c	; 44
 2c6:	8d b5       	in	r24, 0x2d	; 45
 2c8:	70 e0       	ldi	r23, 0x00	; 0
 2ca:	78 2b       	or	r23, r24
 2cc:	cb 01       	movw	r24, r22
 2ce:	a0 e0       	ldi	r26, 0x00	; 0
 2d0:	b0 e0       	ldi	r27, 0x00	; 0
 2d2:	66 27       	eor	r22, r22
 2d4:	78 2f       	mov	r23, r24
 2d6:	89 2f       	mov	r24, r25
 2d8:	9a 2f       	mov	r25, r26
 2da:	08 95       	ret

000002dc <USARTInit>:
 2dc:	10 92 98 00 	sts	0x0098, r1
 2e0:	8c e0       	ldi	r24, 0x0C	; 12
 2e2:	80 93 99 00 	sts	0x0099, r24
 2e6:	eb e9       	ldi	r30, 0x9B	; 155
 2e8:	f0 e0       	ldi	r31, 0x00	; 0
 2ea:	80 81       	ld	r24, Z
 2ec:	82 60       	ori	r24, 0x02	; 2
 2ee:	80 83       	st	Z, r24
 2f0:	ed e9       	ldi	r30, 0x9D	; 157
 2f2:	f0 e0       	ldi	r31, 0x00	; 0
 2f4:	80 81       	ld	r24, Z
 2f6:	86 60       	ori	r24, 0x06	; 6
 2f8:	80 83       	st	Z, r24
 2fa:	ea e9       	ldi	r30, 0x9A	; 154
 2fc:	f0 e0       	ldi	r31, 0x00	; 0
 2fe:	80 81       	ld	r24, Z
 300:	88 60       	ori	r24, 0x08	; 8
 302:	80 83       	st	Z, r24
 304:	08 95       	ret

00000306 <USARTSend>:
 306:	28 2f       	mov	r18, r24
 308:	fc 01       	movw	r30, r24
 30a:	8e 2f       	mov	r24, r30
 30c:	82 1b       	sub	r24, r18
 30e:	86 17       	cp	r24, r22
 310:	40 f4       	brcc	.+16     	; 0x322 <USARTSend+0x1c>
 312:	80 91 9b 00 	lds	r24, 0x009B
 316:	85 ff       	sbrs	r24, 5
 318:	fc cf       	rjmp	.-8      	; 0x312 <USARTSend+0xc>
 31a:	81 91       	ld	r24, Z+
 31c:	80 93 9c 00 	sts	0x009C, r24
 320:	f4 cf       	rjmp	.-24     	; 0x30a <USARTSend+0x4>
 322:	08 95       	ret

00000324 <main>:
 324:	cf 93       	push	r28
 326:	df 93       	push	r29
 328:	cd b7       	in	r28, 0x3d	; 61
 32a:	de b7       	in	r29, 0x3e	; 62
 32c:	6c 97       	sbiw	r28, 0x1c	; 28
 32e:	0f b6       	in	r0, 0x3f	; 63
 330:	f8 94       	cli
 332:	de bf       	out	0x3e, r29	; 62
 334:	0f be       	out	0x3f, r0	; 63
 336:	cd bf       	out	0x3d, r28	; 61
 338:	8e e0       	ldi	r24, 0x0E	; 14
 33a:	e0 e0       	ldi	r30, 0x00	; 0
 33c:	f1 e0       	ldi	r31, 0x01	; 1
 33e:	de 01       	movw	r26, r28
 340:	1f 96       	adiw	r26, 0x0f	; 15
 342:	01 90       	ld	r0, Z+
 344:	0d 92       	st	X+, r0
 346:	8a 95       	dec	r24
 348:	e1 f7       	brne	.-8      	; 0x342 <main+0x1e>
 34a:	0e 94 6e 01 	call	0x2dc	; 0x2dc <USARTInit>
 34e:	0e 94 55 01 	call	0x2aa	; 0x2aa <TIM1Init>
 352:	8f e4       	ldi	r24, 0x4F	; 79
 354:	93 ec       	ldi	r25, 0xC3	; 195
 356:	01 97       	sbiw	r24, 0x01	; 1
 358:	f1 f7       	brne	.-4      	; 0x356 <main+0x32>
 35a:	00 c0       	rjmp	.+0      	; 0x35c <main+0x38>
 35c:	00 00       	nop
 35e:	80 e0       	ldi	r24, 0x00	; 0
 360:	0e 94 ce 00 	call	0x19c	; 0x19c <RadioConfig>
 364:	20 e0       	ldi	r18, 0x00	; 0
 366:	40 e0       	ldi	r20, 0x00	; 0
 368:	50 e0       	ldi	r21, 0x00	; 0
 36a:	60 e0       	ldi	r22, 0x00	; 0
 36c:	70 e0       	ldi	r23, 0x00	; 0
 36e:	81 ee       	ldi	r24, 0xE1	; 225
 370:	0e 94 64 00 	call	0xc8	; 0xc8 <RadioSendCmd>
 374:	6f e7       	ldi	r22, 0x7F	; 127
 376:	87 e0       	ldi	r24, 0x07	; 7
 378:	0e 94 bb 00 	call	0x176	; 0x176 <RadioSetRegVal>
 37c:	ce 01       	movw	r24, r28
 37e:	0f 96       	adiw	r24, 0x0f	; 15
 380:	0e 94 0e 01 	call	0x21c	; 0x21c <RadioWriteData>
 384:	0e 94 a7 00 	call	0x14e	; 0x14e <RadioGetStatus>
 388:	80 73       	andi	r24, 0x30	; 48
 38a:	e1 f3       	breq	.-8      	; 0x384 <main+0x60>
 38c:	81 e0       	ldi	r24, 0x01	; 1
 38e:	0e 94 ce 00 	call	0x19c	; 0x19c <RadioConfig>
 392:	60 e0       	ldi	r22, 0x00	; 0
 394:	70 e0       	ldi	r23, 0x00	; 0
 396:	cb 01       	movw	r24, r22
 398:	0e 94 59 01 	call	0x2b2	; 0x2b2 <TIM1SetVal>
 39c:	0e 94 62 01 	call	0x2c4	; 0x2c4 <TIM1GetVal>
 3a0:	60 34       	cpi	r22, 0x40	; 64
 3a2:	72 44       	sbci	r23, 0x42	; 66
 3a4:	8f 40       	sbci	r24, 0x0F	; 15
 3a6:	91 05       	cpc	r25, r1
 3a8:	d0 f6       	brcc	.-76     	; 0x35e <main+0x3a>
 3aa:	0e 94 21 01 	call	0x242	; 0x242 <RadioDataReceived>
 3ae:	89 2b       	or	r24, r25
 3b0:	a9 f3       	breq	.-22     	; 0x39c <main+0x78>
 3b2:	ce 01       	movw	r24, r28
 3b4:	01 96       	adiw	r24, 0x01	; 1
 3b6:	0e 94 15 01 	call	0x22a	; 0x22a <RadioReadData>
 3ba:	6e e0       	ldi	r22, 0x0E	; 14
 3bc:	ce 01       	movw	r24, r28
 3be:	01 96       	adiw	r24, 0x01	; 1
 3c0:	0e 94 83 01 	call	0x306	; 0x306 <USARTSend>
 3c4:	6f e7       	ldi	r22, 0x7F	; 127
 3c6:	87 e0       	ldi	r24, 0x07	; 7
 3c8:	0e 94 bb 00 	call	0x176	; 0x176 <RadioSetRegVal>
 3cc:	e7 cf       	rjmp	.-50     	; 0x39c <main+0x78>

000003ce <_exit>:
 3ce:	f8 94       	cli

000003d0 <__stop_program>:
 3d0:	ff cf       	rjmp	.-2      	; 0x3d0 <__stop_program>
